:02000000102AC4
:08000800DF00030E8312AE00BD
:0E0010000A0EAF00040EB0008A110A12412A37
:100020000000000000000000000000000000C30B02
:10003000102808000330C307C30CC30C7F30C3056E
:100040000000C30B202808000130C100C2010830A5
:100050004202031808008316051183120511410896
:100060004005031935288316051505308312C30092
:1000700010208316051503108312C10DC20A27280C
:1000800083160512831205126430C3001A208316EA
:10009000851664308312C3001A2083160516643057
:1000A0008312C3001A20080083160512831205125A
:1000B0006430C3001A200800C1010830410203184F
:1000C000852883168512831285126430C3001A2096
:1000D00001303F05C2004208003C03187228831615
:1000E00005167628831605128312051264308312D2
:1000F000C3001A20BF080310BF0C83168516643096
:100100008312C3001A20C10A5D2883168512831248
:10011000851283160516831205126430C3001A2057
:100120008316851664308312C3001A20C001051A95
:10013000C00AC008031DA0288316051283120512E9
:100140006430C3001A20831685128312851264302E
:10015000C3001A200130C10008003E08C00024205E
:100160003F08C000242008008312BE01BF010830F0
:100170003F020318CE28831605118312051183163A
:10018000051506308312C3001A200310BE0C051992
:10019000BE170630C3001020BF0AB7283E08BF00B4
:1001A0000800CD01D001D1014908CE004A08CF0096
:1001B000CC1FE028CD17CB09CC09CB0A0319CC0AF8
:1001C0004D1AF2284B1CEA284E08D0074F08031896
:1001D0004F0FD1070310CC0CCB0C0310CE0DCF0D5D
:1001E000CD0AE028CD1F0800D009D109D00A031993
:1001F000D10A080054203B08BF005C204020542056
:100200003C08BF005C20BE0138083E0203181129DB
:100210002A3084003E0884070008BF005C20BE0A24
:100220000429402054203A083D07BF005C204020AC
:100230000800CC308312BE004430BF00AD2008005F
:10024000CC308312BE00BE30BF00AD20B4203F08CA
:10025000B200B4203F08B1000800831605158312D0
:10026000BE0105118316051132308312C300102020
:100270008316051507308312C30010200519B40139
:100280003230C300102008008312850134308316F9
:1002900085009F0107308312990083168101811721
:1002A0008312900190161015101483160C148312EB
:1002B0000C10B7018B170B1708008312BE01310811
:1002C000BF003208BE04C001BF1BC00AC00803192A
:1002D0006E29BE09BF09BE0A0319BF0A0630C9004C
:1002E000CA013E08CB003F08CC00D1205008C10015
:1002F0005108C4003E08C3003F08C2003F0DC20CB5
:10030000C30C3F0DC20CC30C4308C10744080318BB
:10031000C20AC2076430C102031CC203C501C60180
:10032000C701C80103304202031D9829E830410289
:10033000031CA429C21BA429E830C1020330031CFA
:100340000430C202C50A92294208803AC9008030AE
:100350004902031DAD2964304102031CB6296430F3
:10036000C102C208031CC203C60AA4294208803A7B
:10037000C90080304902031DBF290A304102031C15
:10038000C8290A30C102C208031CC203C70AB62921
:100390004108C80020308400450884070008AA00EE
:1003A000203084004608840739080007AB0020305D
:1003B0008400470884070008AC0020308400480807
:1003C00084070008AD00C5080319AA01C008031975
:1003D000080003304202031DEF29E8304102031CEC
:1003E000F929C21BF9292A08AB002B08AC002C08FC
:1003F000AD004030AA00080044215D21FA203708F2
:10040000003C0318FF29B71D082A2D211921B71117
:10041000371EFF292D2120215D21FA203712FF29C7
:100420008312B101B2010230B300B401B5016E30E4
:10043000B600B7010430B8003F30A0000630A1007C
:100440005B30A2004F30A3006630A4006D30A500E1
:100450007D30A6000730A7007F30A8006F30A900CC
:100460008030B9000730BA004030BB00C030BC005B
:100470008830BD00AA01AB01AC01AD018A110A129E
:10048000FC2983120C1C542A83160C1C542A831238
:100490003608723A0319B71575303602031C522A12
:1004A000B6013716B60A0C108312300E84002F0ED8
:0C04B0008A002E0E8300DF0E5F0E090094
:02400E00C43FAD
:00000001FF
